{
  "_format": "hh-sol-artifact-1",
  "contractName": "ContractPurchaseN1",
  "sourceName": "contracts/ContractPurchaseN1.sol",
  "abi": [
    {
      "inputs": [
        {
          "internalType": "address",
          "name": "_tokenAddress",
          "type": "address"
        },
        {
          "internalType": "address",
          "name": "_seller",
          "type": "address"
        },
        {
          "internalType": "address",
          "name": "_buyer",
          "type": "address"
        },
        {
          "internalType": "address",
          "name": "_resvWallet",
          "type": "address"
        },
        {
          "internalType": "uint256",
          "name": "_timeWaiting",
          "type": "uint256"
        },
        {
          "internalType": "string",
          "name": "_hashTX1",
          "type": "string"
        },
        {
          "internalType": "string",
          "name": "_mtTX1",
          "type": "string"
        },
        {
          "internalType": "string",
          "name": "_hashTX2",
          "type": "string"
        },
        {
          "internalType": "string",
          "name": "_mtTX2",
          "type": "string"
        },
        {
          "internalType": "string",
          "name": "_etat",
          "type": "string"
        },
        {
          "internalType": "string",
          "name": "_date_creation",
          "type": "string"
        }
      ],
      "stateMutability": "nonpayable",
      "type": "constructor"
    },
    {
      "anonymous": false,
      "inputs": [
        {
          "indexed": true,
          "internalType": "address",
          "name": "from",
          "type": "address"
        },
        {
          "indexed": true,
          "internalType": "address",
          "name": "to",
          "type": "address"
        },
        {
          "indexed": false,
          "internalType": "uint256",
          "name": "amount",
          "type": "uint256"
        }
      ],
      "name": "EtherTransfer",
      "type": "event"
    },
    {
      "inputs": [],
      "name": "buyer",
      "outputs": [
        {
          "internalType": "address",
          "name": "",
          "type": "address"
        }
      ],
      "stateMutability": "view",
      "type": "function"
    },
    {
      "inputs": [],
      "name": "date_completed",
      "outputs": [
        {
          "internalType": "string",
          "name": "",
          "type": "string"
        }
      ],
      "stateMutability": "view",
      "type": "function"
    },
    {
      "inputs": [],
      "name": "date_creation",
      "outputs": [
        {
          "internalType": "string",
          "name": "",
          "type": "string"
        }
      ],
      "stateMutability": "view",
      "type": "function"
    },
    {
      "inputs": [],
      "name": "etat",
      "outputs": [
        {
          "internalType": "string",
          "name": "",
          "type": "string"
        }
      ],
      "stateMutability": "view",
      "type": "function"
    },
    {
      "inputs": [],
      "name": "getBuyer",
      "outputs": [
        {
          "internalType": "address",
          "name": "",
          "type": "address"
        }
      ],
      "stateMutability": "view",
      "type": "function"
    },
    {
      "inputs": [],
      "name": "getDateCreation",
      "outputs": [
        {
          "internalType": "string",
          "name": "",
          "type": "string"
        }
      ],
      "stateMutability": "view",
      "type": "function"
    },
    {
      "inputs": [],
      "name": "getEtat",
      "outputs": [
        {
          "internalType": "string",
          "name": "",
          "type": "string"
        }
      ],
      "stateMutability": "view",
      "type": "function"
    },
    {
      "inputs": [],
      "name": "getHashTX1_finish",
      "outputs": [
        {
          "internalType": "string",
          "name": "",
          "type": "string"
        }
      ],
      "stateMutability": "view",
      "type": "function"
    },
    {
      "inputs": [],
      "name": "getHashTX2",
      "outputs": [
        {
          "internalType": "string",
          "name": "",
          "type": "string"
        }
      ],
      "stateMutability": "view",
      "type": "function"
    },
    {
      "inputs": [],
      "name": "getHashTX2_finish",
      "outputs": [
        {
          "internalType": "string",
          "name": "",
          "type": "string"
        }
      ],
      "stateMutability": "view",
      "type": "function"
    },
    {
      "inputs": [],
      "name": "getHashTX3_finish",
      "outputs": [
        {
          "internalType": "string",
          "name": "",
          "type": "string"
        }
      ],
      "stateMutability": "view",
      "type": "function"
    },
    {
      "inputs": [],
      "name": "getMtTX1",
      "outputs": [
        {
          "internalType": "string",
          "name": "",
          "type": "string"
        }
      ],
      "stateMutability": "view",
      "type": "function"
    },
    {
      "inputs": [],
      "name": "getMtTX2",
      "outputs": [
        {
          "internalType": "string",
          "name": "",
          "type": "string"
        }
      ],
      "stateMutability": "view",
      "type": "function"
    },
    {
      "inputs": [],
      "name": "getResvWallet",
      "outputs": [
        {
          "internalType": "address",
          "name": "",
          "type": "address"
        }
      ],
      "stateMutability": "view",
      "type": "function"
    },
    {
      "inputs": [],
      "name": "getSeller",
      "outputs": [
        {
          "internalType": "address",
          "name": "",
          "type": "address"
        }
      ],
      "stateMutability": "view",
      "type": "function"
    },
    {
      "inputs": [],
      "name": "getTimeWaiting",
      "outputs": [
        {
          "internalType": "uint256",
          "name": "",
          "type": "uint256"
        }
      ],
      "stateMutability": "view",
      "type": "function"
    },
    {
      "inputs": [],
      "name": "getTokenAddress",
      "outputs": [
        {
          "internalType": "address",
          "name": "",
          "type": "address"
        }
      ],
      "stateMutability": "view",
      "type": "function"
    },
    {
      "inputs": [],
      "name": "getTransporter",
      "outputs": [
        {
          "internalType": "address",
          "name": "",
          "type": "address"
        }
      ],
      "stateMutability": "view",
      "type": "function"
    },
    {
      "inputs": [],
      "name": "hashTX1",
      "outputs": [
        {
          "internalType": "string",
          "name": "",
          "type": "string"
        }
      ],
      "stateMutability": "view",
      "type": "function"
    },
    {
      "inputs": [],
      "name": "hashTX1_finish",
      "outputs": [
        {
          "internalType": "string",
          "name": "",
          "type": "string"
        }
      ],
      "stateMutability": "view",
      "type": "function"
    },
    {
      "inputs": [],
      "name": "hashTX2",
      "outputs": [
        {
          "internalType": "string",
          "name": "",
          "type": "string"
        }
      ],
      "stateMutability": "view",
      "type": "function"
    },
    {
      "inputs": [],
      "name": "hashTX2_finish",
      "outputs": [
        {
          "internalType": "string",
          "name": "",
          "type": "string"
        }
      ],
      "stateMutability": "view",
      "type": "function"
    },
    {
      "inputs": [],
      "name": "hashTX3",
      "outputs": [
        {
          "internalType": "string",
          "name": "",
          "type": "string"
        }
      ],
      "stateMutability": "view",
      "type": "function"
    },
    {
      "inputs": [],
      "name": "hashTX3_finish",
      "outputs": [
        {
          "internalType": "string",
          "name": "",
          "type": "string"
        }
      ],
      "stateMutability": "view",
      "type": "function"
    },
    {
      "inputs": [],
      "name": "isCompleted",
      "outputs": [
        {
          "internalType": "bool",
          "name": "",
          "type": "bool"
        }
      ],
      "stateMutability": "view",
      "type": "function"
    },
    {
      "inputs": [],
      "name": "mtTX1",
      "outputs": [
        {
          "internalType": "string",
          "name": "",
          "type": "string"
        }
      ],
      "stateMutability": "view",
      "type": "function"
    },
    {
      "inputs": [],
      "name": "mtTX2",
      "outputs": [
        {
          "internalType": "string",
          "name": "",
          "type": "string"
        }
      ],
      "stateMutability": "view",
      "type": "function"
    },
    {
      "inputs": [],
      "name": "mtTX3",
      "outputs": [
        {
          "internalType": "string",
          "name": "",
          "type": "string"
        }
      ],
      "stateMutability": "view",
      "type": "function"
    },
    {
      "inputs": [],
      "name": "resvWallet",
      "outputs": [
        {
          "internalType": "address",
          "name": "",
          "type": "address"
        }
      ],
      "stateMutability": "view",
      "type": "function"
    },
    {
      "inputs": [],
      "name": "seller",
      "outputs": [
        {
          "internalType": "address",
          "name": "",
          "type": "address"
        }
      ],
      "stateMutability": "view",
      "type": "function"
    },
    {
      "inputs": [
        {
          "internalType": "address",
          "name": "_buyer",
          "type": "address"
        }
      ],
      "name": "setBuyer",
      "outputs": [],
      "stateMutability": "nonpayable",
      "type": "function"
    },
    {
      "inputs": [
        {
          "internalType": "string",
          "name": "_date_completed",
          "type": "string"
        }
      ],
      "name": "setCompleted",
      "outputs": [],
      "stateMutability": "nonpayable",
      "type": "function"
    },
    {
      "inputs": [
        {
          "internalType": "string",
          "name": "_date_creation",
          "type": "string"
        }
      ],
      "name": "setDateCreation",
      "outputs": [],
      "stateMutability": "nonpayable",
      "type": "function"
    },
    {
      "inputs": [
        {
          "internalType": "string",
          "name": "_etat",
          "type": "string"
        }
      ],
      "name": "setEtat",
      "outputs": [],
      "stateMutability": "nonpayable",
      "type": "function"
    },
    {
      "inputs": [
        {
          "internalType": "string",
          "name": "_hashTX1_finish",
          "type": "string"
        }
      ],
      "name": "setHashTX1_finish",
      "outputs": [],
      "stateMutability": "nonpayable",
      "type": "function"
    },
    {
      "inputs": [
        {
          "internalType": "string",
          "name": "_hashTX2",
          "type": "string"
        }
      ],
      "name": "setHashTX2",
      "outputs": [],
      "stateMutability": "nonpayable",
      "type": "function"
    },
    {
      "inputs": [
        {
          "internalType": "string",
          "name": "_hashTX2_finish",
          "type": "string"
        }
      ],
      "name": "setHashTX2_finish",
      "outputs": [],
      "stateMutability": "nonpayable",
      "type": "function"
    },
    {
      "inputs": [
        {
          "internalType": "string",
          "name": "_hashTX3",
          "type": "string"
        }
      ],
      "name": "setHashTX3",
      "outputs": [],
      "stateMutability": "nonpayable",
      "type": "function"
    },
    {
      "inputs": [
        {
          "internalType": "string",
          "name": "_hashTX3_finish",
          "type": "string"
        }
      ],
      "name": "setHashTX3_finish",
      "outputs": [],
      "stateMutability": "nonpayable",
      "type": "function"
    },
    {
      "inputs": [
        {
          "internalType": "string",
          "name": "_mtTX1",
          "type": "string"
        }
      ],
      "name": "setMtTX1",
      "outputs": [],
      "stateMutability": "nonpayable",
      "type": "function"
    },
    {
      "inputs": [
        {
          "internalType": "string",
          "name": "_mtTX2",
          "type": "string"
        }
      ],
      "name": "setMtTX2",
      "outputs": [],
      "stateMutability": "nonpayable",
      "type": "function"
    },
    {
      "inputs": [
        {
          "internalType": "string",
          "name": "_mtTX3",
          "type": "string"
        }
      ],
      "name": "setMtTX3",
      "outputs": [],
      "stateMutability": "nonpayable",
      "type": "function"
    },
    {
      "inputs": [
        {
          "internalType": "address",
          "name": "_resvWallet",
          "type": "address"
        }
      ],
      "name": "setResvWallet",
      "outputs": [],
      "stateMutability": "nonpayable",
      "type": "function"
    },
    {
      "inputs": [
        {
          "internalType": "address",
          "name": "_seller",
          "type": "address"
        }
      ],
      "name": "setSeller",
      "outputs": [],
      "stateMutability": "nonpayable",
      "type": "function"
    },
    {
      "inputs": [
        {
          "internalType": "uint256",
          "name": "_timeWaiting",
          "type": "uint256"
        }
      ],
      "name": "setTimeWaiting",
      "outputs": [],
      "stateMutability": "nonpayable",
      "type": "function"
    },
    {
      "inputs": [
        {
          "internalType": "address",
          "name": "_tokenAddress",
          "type": "address"
        }
      ],
      "name": "setTokenAddress",
      "outputs": [],
      "stateMutability": "nonpayable",
      "type": "function"
    },
    {
      "inputs": [
        {
          "internalType": "address",
          "name": "_transporter",
          "type": "address"
        }
      ],
      "name": "setTransporter",
      "outputs": [],
      "stateMutability": "nonpayable",
      "type": "function"
    },
    {
      "inputs": [],
      "name": "timeWaiting",
      "outputs": [
        {
          "internalType": "uint256",
          "name": "",
          "type": "uint256"
        }
      ],
      "stateMutability": "view",
      "type": "function"
    },
    {
      "inputs": [],
      "name": "token",
      "outputs": [
        {
          "internalType": "contract EnergyToken",
          "name": "",
          "type": "address"
        }
      ],
      "stateMutability": "view",
      "type": "function"
    },
    {
      "inputs": [],
      "name": "transporter",
      "outputs": [
        {
          "internalType": "address",
          "name": "",
          "type": "address"
        }
      ],
      "stateMutability": "view",
      "type": "function"
    },
    {
      "inputs": [
        {
          "internalType": "address",
          "name": "_transporter",
          "type": "address"
        },
        {
          "internalType": "string",
          "name": "_hashTX3",
          "type": "string"
        },
        {
          "internalType": "string",
          "name": "_mtTX3",
          "type": "string"
        }
      ],
      "name": "update_initiate1",
      "outputs": [],
      "stateMutability": "nonpayable",
      "type": "function"
    },
    {
      "inputs": [
        {
          "internalType": "string",
          "name": "_hashTX1_finish",
          "type": "string"
        },
        {
          "internalType": "string",
          "name": "_hashTX2_finish",
          "type": "string"
        },
        {
          "internalType": "string",
          "name": "_hashTX3_finish",
          "type": "string"
        }
      ],
      "name": "update_initiate2",
      "outputs": [],
      "stateMutability": "nonpayable",
      "type": "function"
    }
  ],
  "bytecode": "0x60806040523480156200001157600080fd5b5060405162003324380380620033248339818101604052810190620000379190620003f1565b8a6000806101000a81548173ffffffffffffffffffffffffffffffffffffffff021916908373ffffffffffffffffffffffffffffffffffffffff16021790555089600160006101000a81548173ffffffffffffffffffffffffffffffffffffffff021916908373ffffffffffffffffffffffffffffffffffffffff16021790555088600260006101000a81548173ffffffffffffffffffffffffffffffffffffffff021916908373ffffffffffffffffffffffffffffffffffffffff16021790555087600360006101000a81548173ffffffffffffffffffffffffffffffffffffffff021916908373ffffffffffffffffffffffffffffffffffffffff160217905550866004819055508560059081620001529190620007f9565b508460069081620001649190620007f9565b508360079081620001769190620007f9565b508260089081620001889190620007f9565b5081600990816200019a9190620007f9565b5080600d9081620001ac9190620007f9565b505050505050505050505050620008e0565b6000604051905090565b600080fd5b600080fd5b600073ffffffffffffffffffffffffffffffffffffffff82169050919050565b6000620001ff82620001d2565b9050919050565b6200021181620001f2565b81146200021d57600080fd5b50565b600081519050620002318162000206565b92915050565b6000819050919050565b6200024c8162000237565b81146200025857600080fd5b50565b6000815190506200026c8162000241565b92915050565b600080fd5b600080fd5b6000601f19601f8301169050919050565b7f4e487b7100000000000000000000000000000000000000000000000000000000600052604160045260246000fd5b620002c7826200027c565b810181811067ffffffffffffffff82111715620002e957620002e86200028d565b5b80604052505050565b6000620002fe620001be565b90506200030c8282620002bc565b919050565b600067ffffffffffffffff8211156200032f576200032e6200028d565b5b6200033a826200027c565b9050602081019050919050565b60005b83811015620003675780820151818401526020810190506200034a565b60008484015250505050565b60006200038a620003848462000311565b620002f2565b905082815260208101848484011115620003a957620003a862000277565b5b620003b684828562000347565b509392505050565b600082601f830112620003d657620003d562000272565b5b8151620003e884826020860162000373565b91505092915050565b60008060008060008060008060008060006101608c8e0312156200041a5762000419620001c8565b5b60006200042a8e828f0162000220565b9b505060206200043d8e828f0162000220565b9a50506040620004508e828f0162000220565b9950506060620004638e828f0162000220565b9850506080620004768e828f016200025b565b97505060a08c015167ffffffffffffffff8111156200049a5762000499620001cd565b5b620004a88e828f01620003be565b96505060c08c015167ffffffffffffffff811115620004cc57620004cb620001cd565b5b620004da8e828f01620003be565b95505060e08c015167ffffffffffffffff811115620004fe57620004fd620001cd565b5b6200050c8e828f01620003be565b9450506101008c015167ffffffffffffffff811115620005315762000530620001cd565b5b6200053f8e828f01620003be565b9350506101208c015167ffffffffffffffff811115620005645762000563620001cd565b5b620005728e828f01620003be565b9250506101408c015167ffffffffffffffff811115620005975762000596620001cd565b5b620005a58e828f01620003be565b9150509295989b509295989b9093969950565b600081519050919050565b7f4e487b7100000000000000000000000000000000000000000000000000000000600052602260045260246000fd5b600060028204905060018216806200060b57607f821691505b602082108103620006215762000620620005c3565b5b50919050565b60008190508160005260206000209050919050565b60006020601f8301049050919050565b600082821b905092915050565b6000600883026200068b7fffffffffffffffffffffffffffffffffffffffffffffffffffffffffffffffff826200064c565b6200069786836200064c565b95508019841693508086168417925050509392505050565b6000819050919050565b6000620006da620006d4620006ce8462000237565b620006af565b62000237565b9050919050565b6000819050919050565b620006f683620006b9565b6200070e6200070582620006e1565b84845462000659565b825550505050565b600090565b6200072562000716565b62000732818484620006eb565b505050565b5b818110156200075a576200074e6000826200071b565b60018101905062000738565b5050565b601f821115620007a957620007738162000627565b6200077e846200063c565b810160208510156200078e578190505b620007a66200079d856200063c565b83018262000737565b50505b505050565b600082821c905092915050565b6000620007ce60001984600802620007ae565b1980831691505092915050565b6000620007e98383620007bb565b9150826002028217905092915050565b6200080482620005b8565b67ffffffffffffffff81111562000820576200081f6200028d565b5b6200082c8254620005f2565b620008398282856200075e565b600060209050601f8311600181146200087157600084156200085c578287015190505b620008688582620007db565b865550620008d8565b601f198416620008818662000627565b60005b82811015620008ab5784890151825560018201915060208501945060208101905062000884565b86831015620008cb5784890151620008c7601f891682620007bb565b8355505b6001600288020188555050505b505050505050565b612a3480620008f06000396000f3fe608060405234801561001057600080fd5b506004361061030c5760003560e01c806393f97c8d1161019d578063d4bb8d67116100e9578063e64b286c116100a2578063fa391c641161007c578063fa391c641461088d578063fa6e3afc146108ab578063fc0c546a146108c7578063fc462a6d146108e55761030c565b8063e64b286c14610835578063e99d286614610853578063f90b82921461086f5761030c565b8063d4bb8d6714610781578063d56957651461079f578063d7504c23146107bd578063dbd0e1b6146107db578063e2a6c30c146107f9578063e42b0212146108175761030c565b8063a3f09ad611610156578063c42ba0de11610130578063c42ba0de1461070d578063c59b590a14610729578063caa2f52014610747578063d4a7a974146107635761030c565b8063a3f09ad6146106b7578063a9976477146106d3578063b2ec1f93146106f15761030c565b806393f97c8d1461060957806394eed0581461062557806397c9fc26146106435780639c8dadae1461065f578063a0a957371461067b578063a2287c86146106995761030c565b80635898c0861161025c5780637150d8ae1161021557806380d89413116101ef57806380d8941314610595578063824c973f146105b35780638c1d686a146105cf578063904ac827146105ed5761030c565b80637150d8ae1461053d57806379d717731461055b5780637f576bd3146105775761030c565b80635898c0861461048f57806358ade9de146104ab5780635fb1a141146104c7578063603daf9a146104e55780636b91c32c146105035780636d7175131461051f5761030c565b806331b64db7116102c957806343018ee7116102a357806343018ee7146104175780634ab5ada2146104355780635416f8351461045357806355c05339146104715761030c565b806331b64db7146103c35780633760a8df146103df5780633fa401ef146103fb5761030c565b806308551a531461031157806310fe9ae81461032f5780631a1ad4c51461034d57806322bbecc21461036b57806326a4e8d21461038957806329d7b246146103a5575b600080fd5b610319610903565b6040516103269190611d6b565b60405180910390f35b610337610929565b6040516103449190611d6b565b60405180910390f35b610355610952565b6040516103629190611d6b565b60405180910390f35b61037361097c565b6040516103809190611e16565b60405180910390f35b6103a3600480360381019061039e9190611e78565b610a0a565b005b6103ad610a4d565b6040516103ba9190611e16565b60405180910390f35b6103dd60048036038101906103d89190611fda565b610adf565b005b6103f960048036038101906103f49190612023565b610af2565b005b61041560048036038101906104109190611fda565b610b58565b005b61041f610b6b565b60405161042c9190611e16565b60405180910390f35b61043d610bf9565b60405161044a9190611d6b565b60405180910390f35b61045b610c23565b6040516104689190611e16565b60405180910390f35b610479610cb5565b6040516104869190611e16565b60405180910390f35b6104a960048036038101906104a49190611fda565b610d43565b005b6104c560048036038101906104c09190611fda565b610d56565b005b6104cf610d69565b6040516104dc9190611e16565b60405180910390f35b6104ed610df7565b6040516104fa9190611d6b565b60405180910390f35b61051d60048036038101906105189190611fda565b610e21565b005b610527610e3c565b6040516105349190611e16565b60405180910390f35b610545610ece565b6040516105529190611d6b565b60405180910390f35b61057560048036038101906105709190611fda565b610ef4565b005b61057f610f07565b60405161058c9190611e16565b60405180910390f35b61059d610f99565b6040516105aa9190611e16565b60405180910390f35b6105cd60048036038101906105c89190611fda565b611027565b005b6105d761103a565b6040516105e49190611e16565b60405180910390f35b61060760048036038101906106029190611fda565b6110cc565b005b610623600480360381019061061e91906120ae565b6110df565b005b61062d611114565b60405161063a9190611e16565b60405180910390f35b61065d60048036038101906106589190611fda565b6111a2565b005b61067960048036038101906106749190611e78565b6111b5565b005b6106836111f9565b604051610690919061216e565b60405180910390f35b6106a16111ff565b6040516106ae9190611e16565b60405180910390f35b6106d160048036038101906106cc9190611e78565b61128d565b005b6106db6112d1565b6040516106e89190611e16565b60405180910390f35b61070b60048036038101906107069190611fda565b61135f565b005b61072760048036038101906107229190611fda565b61141d565b005b610731611430565b60405161073e9190611e16565b60405180910390f35b610761600480360381019061075c91906121b5565b6114be565b005b61076b6114c8565b6040516107789190611e16565b60405180910390f35b61078961155a565b6040516107969190611d6b565b60405180910390f35b6107a7611580565b6040516107b49190611e16565b60405180910390f35b6107c561160e565b6040516107d29190611e16565b60405180910390f35b6107e36116a0565b6040516107f09190611d6b565b60405180910390f35b6108016116ca565b60405161080e919061216e565b60405180910390f35b61081f6116d4565b60405161082c9190611d6b565b60405180910390f35b61083d6116fa565b60405161084a9190611e16565b60405180910390f35b61086d60048036038101906108689190611e78565b61178c565b005b6108776117d0565b6040516108849190611e16565b60405180910390f35b61089561185e565b6040516108a291906121fd565b60405180910390f35b6108c560048036038101906108c09190611e78565b611871565b005b6108cf6118b5565b6040516108dc9190612277565b60405180910390f35b6108ed6118d9565b6040516108fa9190611e16565b60405180910390f35b600160009054906101000a900473ffffffffffffffffffffffffffffffffffffffff1681565b60008060009054906101000a900473ffffffffffffffffffffffffffffffffffffffff16905090565b6000600f60009054906101000a900473ffffffffffffffffffffffffffffffffffffffff16905090565b60088054610989906122c1565b80601f01602080910402602001604051908101604052809291908181526020018280546109b5906122c1565b8015610a025780601f106109d757610100808354040283529160200191610a02565b820191906000526020600020905b8154815290600101906020018083116109e557829003601f168201915b505050505081565b806000806101000a81548173ffffffffffffffffffffffffffffffffffffffff021916908373ffffffffffffffffffffffffffffffffffffffff16021790555050565b606060118054610a5c906122c1565b80601f0160208091040260200160405190810160405280929190818152602001828054610a88906122c1565b8015610ad55780601f10610aaa57610100808354040283529160200191610ad5565b820191906000526020600020905b815481529060010190602001808311610ab857829003601f168201915b5050505050905090565b8060089081610aee9190612494565b5050565b82600f60006101000a81548173ffffffffffffffffffffffffffffffffffffffff021916908373ffffffffffffffffffffffffffffffffffffffff16021790555081600a9081610b429190612494565b5080600b9081610b529190612494565b50505050565b80600b9081610b679190612494565b5050565b60068054610b78906122c1565b80601f0160208091040260200160405190810160405280929190818152602001828054610ba4906122c1565b8015610bf15780601f10610bc657610100808354040283529160200191610bf1565b820191906000526020600020905b815481529060010190602001808311610bd457829003601f168201915b505050505081565b6000600360009054906101000a900473ffffffffffffffffffffffffffffffffffffffff16905090565b606060088054610c32906122c1565b80601f0160208091040260200160405190810160405280929190818152602001828054610c5e906122c1565b8015610cab5780601f10610c8057610100808354040283529160200191610cab565b820191906000526020600020905b815481529060010190602001808311610c8e57829003601f168201915b5050505050905090565b60128054610cc2906122c1565b80601f0160208091040260200160405190810160405280929190818152602001828054610cee906122c1565b8015610d3b5780601f10610d1057610100808354040283529160200191610d3b565b820191906000526020600020905b815481529060010190602001808311610d1e57829003601f168201915b505050505081565b80600a9081610d529190612494565b5050565b80600d9081610d659190612494565b5050565b60058054610d76906122c1565b80601f0160208091040260200160405190810160405280929190818152602001828054610da2906122c1565b8015610def5780601f10610dc457610100808354040283529160200191610def565b820191906000526020600020905b815481529060010190602001808311610dd257829003601f168201915b505050505081565b6000600260009054906101000a900473ffffffffffffffffffffffffffffffffffffffff16905090565b8060119081610e309190612494565b50610e39611967565b50565b606060098054610e4b906122c1565b80601f0160208091040260200160405190810160405280929190818152602001828054610e77906122c1565b8015610ec45780601f10610e9957610100808354040283529160200191610ec4565b820191906000526020600020905b815481529060010190602001808311610ea757829003601f168201915b5050505050905090565b600260009054906101000a900473ffffffffffffffffffffffffffffffffffffffff1681565b8060069081610f039190612494565b5050565b606060078054610f16906122c1565b80601f0160208091040260200160405190810160405280929190818152602001828054610f42906122c1565b8015610f8f5780601f10610f6457610100808354040283529160200191610f8f565b820191906000526020600020905b815481529060010190602001808311610f7257829003601f168201915b5050505050905090565b600b8054610fa6906122c1565b80601f0160208091040260200160405190810160405280929190818152602001828054610fd2906122c1565b801561101f5780601f10610ff45761010080835404028352916020019161101f565b820191906000526020600020905b81548152906001019060200180831161100257829003601f168201915b505050505081565b80601090816110369190612494565b5050565b606060108054611049906122c1565b80601f0160208091040260200160405190810160405280929190818152602001828054611075906122c1565b80156110c25780601f10611097576101008083540402835291602001916110c2565b820191906000526020600020905b8154815290600101906020018083116110a557829003601f168201915b5050505050905090565b80601290816110db9190612494565b5050565b82601090816110ee9190612494565b5081601190816110fe9190612494565b50806012908161110e9190612494565b50505050565b600a8054611121906122c1565b80601f016020809104026020016040519081016040528092919081815260200182805461114d906122c1565b801561119a5780601f1061116f5761010080835404028352916020019161119a565b820191906000526020600020905b81548152906001019060200180831161117d57829003601f168201915b505050505081565b80600790816111b19190612494565b5050565b80600f60006101000a81548173ffffffffffffffffffffffffffffffffffffffff021916908373ffffffffffffffffffffffffffffffffffffffff16021790555050565b60045481565b6009805461120c906122c1565b80601f0160208091040260200160405190810160405280929190818152602001828054611238906122c1565b80156112855780601f1061125a57610100808354040283529160200191611285565b820191906000526020600020905b81548152906001019060200180831161126857829003601f168201915b505050505081565b80600260006101000a81548173ffffffffffffffffffffffffffffffffffffffff021916908373ffffffffffffffffffffffffffffffffffffffff16021790555050565b601180546112de906122c1565b80601f016020809104026020016040519081016040528092919081815260200182805461130a906122c1565b80156113575780601f1061132c57610100808354040283529160200191611357565b820191906000526020600020905b81548152906001019060200180831161133a57829003601f168201915b505050505081565b600260009054906101000a900473ffffffffffffffffffffffffffffffffffffffff1673ffffffffffffffffffffffffffffffffffffffff163373ffffffffffffffffffffffffffffffffffffffff16146113ef576040517f08c379a00000000000000000000000000000000000000000000000000000000081526004016113e6906125d8565b60405180910390fd5b6001600c60006101000a81548160ff02191690831515021790555080600e90816114199190612494565b5050565b806009908161142c9190612494565b5050565b6010805461143d906122c1565b80601f0160208091040260200160405190810160405280929190818152602001828054611469906122c1565b80156114b65780601f1061148b576101008083540402835291602001916114b6565b820191906000526020600020905b81548152906001019060200180831161149957829003601f168201915b505050505081565b8060048190555050565b6060600680546114d7906122c1565b80601f0160208091040260200160405190810160405280929190818152602001828054611503906122c1565b80156115505780601f1061152557610100808354040283529160200191611550565b820191906000526020600020905b81548152906001019060200180831161153357829003601f168201915b5050505050905090565b600360009054906101000a900473ffffffffffffffffffffffffffffffffffffffff1681565b600e805461158d906122c1565b80601f01602080910402602001604051908101604052809291908181526020018280546115b9906122c1565b80156116065780601f106115db57610100808354040283529160200191611606565b820191906000526020600020905b8154815290600101906020018083116115e957829003601f168201915b505050505081565b6060600d805461161d906122c1565b80601f0160208091040260200160405190810160405280929190818152602001828054611649906122c1565b80156116965780601f1061166b57610100808354040283529160200191611696565b820191906000526020600020905b81548152906001019060200180831161167957829003601f168201915b5050505050905090565b6000600160009054906101000a900473ffffffffffffffffffffffffffffffffffffffff16905090565b6000600454905090565b600f60009054906101000a900473ffffffffffffffffffffffffffffffffffffffff1681565b606060128054611709906122c1565b80601f0160208091040260200160405190810160405280929190818152602001828054611735906122c1565b80156117825780601f1061175757610100808354040283529160200191611782565b820191906000526020600020905b81548152906001019060200180831161176557829003601f168201915b5050505050905090565b80600160006101000a81548173ffffffffffffffffffffffffffffffffffffffff021916908373ffffffffffffffffffffffffffffffffffffffff16021790555050565b600d80546117dd906122c1565b80601f0160208091040260200160405190810160405280929190818152602001828054611809906122c1565b80156118565780601f1061182b57610100808354040283529160200191611856565b820191906000526020600020905b81548152906001019060200180831161183957829003601f168201915b505050505081565b600c60009054906101000a900460ff1681565b80600360006101000a81548173ffffffffffffffffffffffffffffffffffffffff021916908373ffffffffffffffffffffffffffffffffffffffff16021790555050565b60008054906101000a900473ffffffffffffffffffffffffffffffffffffffff1681565b600780546118e6906122c1565b80601f0160208091040260200160405190810160405280929190818152602001828054611912906122c1565b801561195f5780601f106119345761010080835404028352916020019161195f565b820191906000526020600020905b81548152906001019060200180831161194257829003601f168201915b505050505081565b6000600360009054906101000a900473ffffffffffffffffffffffffffffffffffffffff1690506000600160009054906101000a900473ffffffffffffffffffffffffffffffffffffffff1690506000611a4a600680546119c7906122c1565b80601f01602080910402602001604051908101604052809291908181526020018280546119f3906122c1565b8015611a405780601f10611a1557610100808354040283529160200191611a40565b820191906000526020600020905b815481529060010190602001808311611a2357829003601f168201915b5050505050611a98565b90508173ffffffffffffffffffffffffffffffffffffffff166108fc829081150290604051600060405180830381858888f19350505050158015611a92573d6000803e3d6000fd5b50505050565b6000808290506000815111611ae2576040517f08c379a0000000000000000000000000000000000000000000000000000000008152600401611ad990612644565b60405180910390fd5b6000670de0b6b3a764000090506000808351905060005b8451811015611b83577f2e00000000000000000000000000000000000000000000000000000000000000858281518110611b3657611b35612664565b5b602001015160f81c60f81b7effffffffffffffffffffffffffffffffffffffffffffffffffffffffffffff191603611b7057809150611b83565b8080611b7b906126c2565b915050611af9565b5060005b8451811015611c8c5781810315611c79576030858281518110611bad57611bac612664565b5b602001015160f81c60f81b60f81c60ff1610158015611bf057506039858281518110611bdc57611bdb612664565b5b602001015160f81c60f81b60f81c60ff1611155b611c2f576040517f08c379a0000000000000000000000000000000000000000000000000000000008152600401611c2690612644565b60405180910390fd5b6030858281518110611c4457611c43612664565b5b602001015160f81c60f81b60f81c60ff16611c5f919061270a565b600a84611c6c919061273e565b611c769190612780565b92505b8080611c84906126c2565b915050611b87565b508351811015611d135760006001828651611ca7919061270a565b611cb1919061270a565b90506012811115611cf7576040517f08c379a0000000000000000000000000000000000000000000000000000000008152600401611cee90612800565b60405180910390fd5b80600a611d049190612953565b84611d0f91906129cd565b9350505b8282611d1f919061273e565b945050505050919050565b600073ffffffffffffffffffffffffffffffffffffffff82169050919050565b6000611d5582611d2a565b9050919050565b611d6581611d4a565b82525050565b6000602082019050611d806000830184611d5c565b92915050565b600081519050919050565b600082825260208201905092915050565b60005b83811015611dc0578082015181840152602081019050611da5565b60008484015250505050565b6000601f19601f8301169050919050565b6000611de882611d86565b611df28185611d91565b9350611e02818560208601611da2565b611e0b81611dcc565b840191505092915050565b60006020820190508181036000830152611e308184611ddd565b905092915050565b6000604051905090565b600080fd5b600080fd5b611e5581611d4a565b8114611e6057600080fd5b50565b600081359050611e7281611e4c565b92915050565b600060208284031215611e8e57611e8d611e42565b5b6000611e9c84828501611e63565b91505092915050565b600080fd5b600080fd5b7f4e487b7100000000000000000000000000000000000000000000000000000000600052604160045260246000fd5b611ee782611dcc565b810181811067ffffffffffffffff82111715611f0657611f05611eaf565b5b80604052505050565b6000611f19611e38565b9050611f258282611ede565b919050565b600067ffffffffffffffff821115611f4557611f44611eaf565b5b611f4e82611dcc565b9050602081019050919050565b82818337600083830152505050565b6000611f7d611f7884611f2a565b611f0f565b905082815260208101848484011115611f9957611f98611eaa565b5b611fa4848285611f5b565b509392505050565b600082601f830112611fc157611fc0611ea5565b5b8135611fd1848260208601611f6a565b91505092915050565b600060208284031215611ff057611fef611e42565b5b600082013567ffffffffffffffff81111561200e5761200d611e47565b5b61201a84828501611fac565b91505092915050565b60008060006060848603121561203c5761203b611e42565b5b600061204a86828701611e63565b935050602084013567ffffffffffffffff81111561206b5761206a611e47565b5b61207786828701611fac565b925050604084013567ffffffffffffffff81111561209857612097611e47565b5b6120a486828701611fac565b9150509250925092565b6000806000606084860312156120c7576120c6611e42565b5b600084013567ffffffffffffffff8111156120e5576120e4611e47565b5b6120f186828701611fac565b935050602084013567ffffffffffffffff81111561211257612111611e47565b5b61211e86828701611fac565b925050604084013567ffffffffffffffff81111561213f5761213e611e47565b5b61214b86828701611fac565b9150509250925092565b6000819050919050565b61216881612155565b82525050565b6000602082019050612183600083018461215f565b92915050565b61219281612155565b811461219d57600080fd5b50565b6000813590506121af81612189565b92915050565b6000602082840312156121cb576121ca611e42565b5b60006121d9848285016121a0565b91505092915050565b60008115159050919050565b6121f7816121e2565b82525050565b600060208201905061221260008301846121ee565b92915050565b6000819050919050565b600061223d61223861223384611d2a565b612218565b611d2a565b9050919050565b600061224f82612222565b9050919050565b600061226182612244565b9050919050565b61227181612256565b82525050565b600060208201905061228c6000830184612268565b92915050565b7f4e487b7100000000000000000000000000000000000000000000000000000000600052602260045260246000fd5b600060028204905060018216806122d957607f821691505b6020821081036122ec576122eb612292565b5b50919050565b60008190508160005260206000209050919050565b60006020601f8301049050919050565b600082821b905092915050565b6000600883026123547fffffffffffffffffffffffffffffffffffffffffffffffffffffffffffffffff82612317565b61235e8683612317565b95508019841693508086168417925050509392505050565b600061239161238c61238784612155565b612218565b612155565b9050919050565b6000819050919050565b6123ab83612376565b6123bf6123b782612398565b848454612324565b825550505050565b600090565b6123d46123c7565b6123df8184846123a2565b505050565b5b81811015612403576123f86000826123cc565b6001810190506123e5565b5050565b601f82111561244857612419816122f2565b61242284612307565b81016020851015612431578190505b61244561243d85612307565b8301826123e4565b50505b505050565b600082821c905092915050565b600061246b6000198460080261244d565b1980831691505092915050565b6000612484838361245a565b9150826002028217905092915050565b61249d82611d86565b67ffffffffffffffff8111156124b6576124b5611eaf565b5b6124c082546122c1565b6124cb828285612407565b600060209050601f8311600181146124fe57600084156124ec578287015190505b6124f68582612478565b86555061255e565b601f19841661250c866122f2565b60005b828110156125345784890151825560018201915060208501945060208101905061250f565b86831015612551578489015161254d601f89168261245a565b8355505b6001600288020188555050505b505050505050565b7f4f6e6c79207468652062757965722063616e207365742074686520636f6d706c60008201527f6574656420737461747573000000000000000000000000000000000000000000602082015250565b60006125c2602b83611d91565b91506125cd82612566565b604082019050919050565b600060208201905081810360008301526125f1816125b5565b9050919050565b7f496e76616c69642076616c756500000000000000000000000000000000000000600082015250565b600061262e600d83611d91565b9150612639826125f8565b602082019050919050565b6000602082019050818103600083015261265d81612621565b9050919050565b7f4e487b7100000000000000000000000000000000000000000000000000000000600052603260045260246000fd5b7f4e487b7100000000000000000000000000000000000000000000000000000000600052601160045260246000fd5b60006126cd82612155565b91507fffffffffffffffffffffffffffffffffffffffffffffffffffffffffffffffff82036126ff576126fe612693565b5b600182019050919050565b600061271582612155565b915061272083612155565b925082820390508181111561273857612737612693565b5b92915050565b600061274982612155565b915061275483612155565b925082820261276281612155565b9150828204841483151761277957612778612693565b5b5092915050565b600061278b82612155565b915061279683612155565b92508282019050808211156127ae576127ad612693565b5b92915050565b7f546f6f206d616e7920646563696d616c20706c61636573000000000000000000600082015250565b60006127ea601783611d91565b91506127f5826127b4565b602082019050919050565b60006020820190508181036000830152612819816127dd565b9050919050565b60008160011c9050919050565b6000808291508390505b60018511156128775780860481111561285357612852612693565b5b60018516156128625780820291505b808102905061287085612820565b9450612837565b94509492505050565b600082612890576001905061294c565b8161289e576000905061294c565b81600181146128b457600281146128be576128ed565b600191505061294c565b60ff8411156128d0576128cf612693565b5b8360020a9150848211156128e7576128e6612693565b5b5061294c565b5060208310610133831016604e8410600b84101617156129225782820a90508381111561291d5761291c612693565b5b61294c565b61292f848484600161282d565b9250905081840481111561294657612945612693565b5b81810290505b9392505050565b600061295e82612155565b915061296983612155565b92506129967fffffffffffffffffffffffffffffffffffffffffffffffffffffffffffffffff8484612880565b905092915050565b7f4e487b7100000000000000000000000000000000000000000000000000000000600052601260045260246000fd5b60006129d882612155565b91506129e383612155565b9250826129f3576129f261299e565b5b82820490509291505056fea2646970667358221220e2895380a65b9d6de91990ab62769212fdf8f8c711d8d4cd2c116d3b32cd939c64736f6c63430008120033",
  "linkReferences": {},
  "deployedLinkReferences": {}
}