{
  "_format": "hh-sol-artifact-1",
  "contractName": "EnergyToken",
  "sourceName": "contracts/EnergyToken.sol",
  "abi": [
    {
      "inputs": [
        {
          "internalType": "uint256",
          "name": "initialSupply",
          "type": "uint256"
        },
        {
          "internalType": "uint256",
          "name": "cap",
          "type": "uint256"
        },
        {
          "internalType": "uint256",
          "name": "reward",
          "type": "uint256"
        },
        {
          "internalType": "uint256",
          "name": "_energyTokenPerKWh",
          "type": "uint256"
        },
        {
          "internalType": "uint256",
          "name": "price",
          "type": "uint256"
        }
      ],
      "stateMutability": "nonpayable",
      "type": "constructor"
    },
    {
      "anonymous": false,
      "inputs": [
        {
          "indexed": true,
          "internalType": "address",
          "name": "owner",
          "type": "address"
        },
        {
          "indexed": true,
          "internalType": "address",
          "name": "spender",
          "type": "address"
        },
        {
          "indexed": false,
          "internalType": "uint256",
          "name": "value",
          "type": "uint256"
        }
      ],
      "name": "Approval",
      "type": "event"
    },
    {
      "anonymous": false,
      "inputs": [
        {
          "indexed": true,
          "internalType": "address",
          "name": "from",
          "type": "address"
        },
        {
          "indexed": true,
          "internalType": "address",
          "name": "to",
          "type": "address"
        },
        {
          "indexed": false,
          "internalType": "uint256",
          "name": "value",
          "type": "uint256"
        }
      ],
      "name": "Transfer",
      "type": "event"
    },
    {
      "anonymous": false,
      "inputs": [
        {
          "indexed": true,
          "internalType": "bytes32",
          "name": "txHash",
          "type": "bytes32"
        }
      ],
      "name": "TransferSuccessful",
      "type": "event"
    },
    {
      "inputs": [
        {
          "internalType": "address",
          "name": "owner",
          "type": "address"
        },
        {
          "internalType": "address",
          "name": "spender",
          "type": "address"
        }
      ],
      "name": "allowance",
      "outputs": [
        {
          "internalType": "uint256",
          "name": "",
          "type": "uint256"
        }
      ],
      "stateMutability": "view",
      "type": "function"
    },
    {
      "inputs": [
        {
          "internalType": "address",
          "name": "spender",
          "type": "address"
        },
        {
          "internalType": "uint256",
          "name": "amount",
          "type": "uint256"
        }
      ],
      "name": "approve",
      "outputs": [
        {
          "internalType": "bool",
          "name": "",
          "type": "bool"
        }
      ],
      "stateMutability": "nonpayable",
      "type": "function"
    },
    {
      "inputs": [
        {
          "internalType": "address",
          "name": "account",
          "type": "address"
        }
      ],
      "name": "balanceOf",
      "outputs": [
        {
          "internalType": "uint256",
          "name": "",
          "type": "uint256"
        }
      ],
      "stateMutability": "view",
      "type": "function"
    },
    {
      "inputs": [],
      "name": "blockreward",
      "outputs": [
        {
          "internalType": "uint256",
          "name": "",
          "type": "uint256"
        }
      ],
      "stateMutability": "view",
      "type": "function"
    },
    {
      "inputs": [
        {
          "internalType": "uint256",
          "name": "amount",
          "type": "uint256"
        }
      ],
      "name": "burn",
      "outputs": [],
      "stateMutability": "nonpayable",
      "type": "function"
    },
    {
      "inputs": [
        {
          "internalType": "address",
          "name": "account",
          "type": "address"
        },
        {
          "internalType": "uint256",
          "name": "amount",
          "type": "uint256"
        }
      ],
      "name": "burnFrom",
      "outputs": [],
      "stateMutability": "nonpayable",
      "type": "function"
    },
    {
      "inputs": [],
      "name": "cap",
      "outputs": [
        {
          "internalType": "uint256",
          "name": "",
          "type": "uint256"
        }
      ],
      "stateMutability": "view",
      "type": "function"
    },
    {
      "inputs": [
        {
          "internalType": "uint256",
          "name": "tokenAmount",
          "type": "uint256"
        }
      ],
      "name": "convertToEther",
      "outputs": [
        {
          "internalType": "uint256",
          "name": "",
          "type": "uint256"
        }
      ],
      "stateMutability": "view",
      "type": "function"
    },
    {
      "inputs": [
        {
          "internalType": "uint256",
          "name": "energyAmountInKWh",
          "type": "uint256"
        }
      ],
      "name": "convertToTokens",
      "outputs": [
        {
          "internalType": "uint256",
          "name": "",
          "type": "uint256"
        }
      ],
      "stateMutability": "view",
      "type": "function"
    },
    {
      "inputs": [],
      "name": "decimals",
      "outputs": [
        {
          "internalType": "uint8",
          "name": "",
          "type": "uint8"
        }
      ],
      "stateMutability": "view",
      "type": "function"
    },
    {
      "inputs": [
        {
          "internalType": "address",
          "name": "spender",
          "type": "address"
        },
        {
          "internalType": "uint256",
          "name": "subtractedValue",
          "type": "uint256"
        }
      ],
      "name": "decreaseAllowance",
      "outputs": [
        {
          "internalType": "bool",
          "name": "",
          "type": "bool"
        }
      ],
      "stateMutability": "nonpayable",
      "type": "function"
    },
    {
      "inputs": [],
      "name": "destroy",
      "outputs": [],
      "stateMutability": "nonpayable",
      "type": "function"
    },
    {
      "inputs": [],
      "name": "energyTokenPerKWh",
      "outputs": [
        {
          "internalType": "uint256",
          "name": "",
          "type": "uint256"
        }
      ],
      "stateMutability": "view",
      "type": "function"
    },
    {
      "inputs": [
        {
          "internalType": "address",
          "name": "spender",
          "type": "address"
        },
        {
          "internalType": "uint256",
          "name": "addedValue",
          "type": "uint256"
        }
      ],
      "name": "increaseAllowance",
      "outputs": [
        {
          "internalType": "bool",
          "name": "",
          "type": "bool"
        }
      ],
      "stateMutability": "nonpayable",
      "type": "function"
    },
    {
      "inputs": [],
      "name": "name",
      "outputs": [
        {
          "internalType": "string",
          "name": "",
          "type": "string"
        }
      ],
      "stateMutability": "view",
      "type": "function"
    },
    {
      "inputs": [],
      "name": "owner",
      "outputs": [
        {
          "internalType": "address payable",
          "name": "",
          "type": "address"
        }
      ],
      "stateMutability": "view",
      "type": "function"
    },
    {
      "inputs": [
        {
          "internalType": "uint256",
          "name": "reward",
          "type": "uint256"
        }
      ],
      "name": "setBlockReward",
      "outputs": [],
      "stateMutability": "nonpayable",
      "type": "function"
    },
    {
      "inputs": [],
      "name": "symbol",
      "outputs": [
        {
          "internalType": "string",
          "name": "",
          "type": "string"
        }
      ],
      "stateMutability": "view",
      "type": "function"
    },
    {
      "inputs": [],
      "name": "tokenPrice",
      "outputs": [
        {
          "internalType": "uint256",
          "name": "",
          "type": "uint256"
        }
      ],
      "stateMutability": "view",
      "type": "function"
    },
    {
      "inputs": [],
      "name": "totalSupply",
      "outputs": [
        {
          "internalType": "uint256",
          "name": "",
          "type": "uint256"
        }
      ],
      "stateMutability": "view",
      "type": "function"
    },
    {
      "inputs": [
        {
          "internalType": "address",
          "name": "to",
          "type": "address"
        },
        {
          "internalType": "uint256",
          "name": "amount",
          "type": "uint256"
        }
      ],
      "name": "transfer",
      "outputs": [
        {
          "internalType": "bool",
          "name": "",
          "type": "bool"
        }
      ],
      "stateMutability": "nonpayable",
      "type": "function"
    },
    {
      "inputs": [
        {
          "internalType": "address",
          "name": "from",
          "type": "address"
        },
        {
          "internalType": "address",
          "name": "to",
          "type": "address"
        },
        {
          "internalType": "uint256",
          "name": "amount",
          "type": "uint256"
        }
      ],
      "name": "transferFrom",
      "outputs": [
        {
          "internalType": "bool",
          "name": "",
          "type": "bool"
        }
      ],
      "stateMutability": "nonpayable",
      "type": "function"
    }
  ],
  "bytecode": "0x60a06040523480156200001157600080fd5b5060405162002b4838038062002b488339818101604052810190620000379190620004ac565b620000476200022c60201b60201c565b600a620000559190620006c4565b8462000062919062000715565b6040518060400160405280600b81526020017f456e65726779546f6b656e0000000000000000000000000000000000000000008152506040518060400160405280600381526020017f45475400000000000000000000000000000000000000000000000000000000008152508160039081620000df9190620009d0565b508060049081620000f19190620009d0565b505050600081116200013a576040517f08c379a0000000000000000000000000000000000000000000000000000000008152600401620001319062000b18565b60405180910390fd5b80608081815250505033600560006101000a81548173ffffffffffffffffffffffffffffffffffffffff021916908373ffffffffffffffffffffffffffffffffffffffff160217905550620001e2600560009054906101000a900473ffffffffffffffffffffffffffffffffffffffff16620001bb6200022c60201b60201c565b600a620001c99190620006c4565b87620001d6919062000715565b6200023560201b60201c565b620001f26200022c60201b60201c565b600a620002009190620006c4565b836200020d919062000715565b6006819055508160078190555080600881905550505050505062000c87565b60006012905090565b6200024c82826200025060201b620009d11760201c565b5050565b62000260620002e160201b60201c565b8162000276620002eb60201b620005181760201c565b62000282919062000b3a565b1115620002c6576040517f08c379a0000000000000000000000000000000000000000000000000000000008152600401620002bd9062000bc5565b60405180910390fd5b620002dd8282620002f560201b62000a3b1760201c565b5050565b6000608051905090565b6000600254905090565b600073ffffffffffffffffffffffffffffffffffffffff168273ffffffffffffffffffffffffffffffffffffffff160362000367576040517f08c379a00000000000000000000000000000000000000000000000000000000081526004016200035e9062000c37565b60405180910390fd5b6200037b600083836200046260201b60201c565b80600260008282546200038f919062000b3a565b92505081905550806000808473ffffffffffffffffffffffffffffffffffffffff1673ffffffffffffffffffffffffffffffffffffffff168152602001908152602001600020600082825401925050819055508173ffffffffffffffffffffffffffffffffffffffff16600073ffffffffffffffffffffffffffffffffffffffff167fddf252ad1be2c89b69c2b068fc378daa952ba7f163c4a11628f55a4df523b3ef8360405162000442919062000c6a565b60405180910390a36200045e600083836200046760201b60201c565b5050565b505050565b505050565b600080fd5b6000819050919050565b620004868162000471565b81146200049257600080fd5b50565b600081519050620004a6816200047b565b92915050565b600080600080600060a08688031215620004cb57620004ca6200046c565b5b6000620004db8882890162000495565b9550506020620004ee8882890162000495565b9450506040620005018882890162000495565b9350506060620005148882890162000495565b9250506080620005278882890162000495565b9150509295509295909350565b7f4e487b7100000000000000000000000000000000000000000000000000000000600052601160045260246000fd5b60008160011c9050919050565b6000808291508390505b6001851115620005c2578086048111156200059a576200059962000534565b5b6001851615620005aa5780820291505b8081029050620005ba8562000563565b94506200057a565b94509492505050565b600082620005dd5760019050620006b0565b81620005ed5760009050620006b0565b8160018114620006065760028114620006115762000647565b6001915050620006b0565b60ff84111562000626576200062562000534565b5b8360020a91508482111562000640576200063f62000534565b5b50620006b0565b5060208310610133831016604e8410600b8410161715620006815782820a9050838111156200067b576200067a62000534565b5b620006b0565b62000690848484600162000570565b92509050818404811115620006aa57620006a962000534565b5b81810290505b9392505050565b600060ff82169050919050565b6000620006d18262000471565b9150620006de83620006b7565b92506200070d7fffffffffffffffffffffffffffffffffffffffffffffffffffffffffffffffff8484620005cb565b905092915050565b6000620007228262000471565b91506200072f8362000471565b92508282026200073f8162000471565b9150828204841483151762000759576200075862000534565b5b5092915050565b600081519050919050565b7f4e487b7100000000000000000000000000000000000000000000000000000000600052604160045260246000fd5b7f4e487b7100000000000000000000000000000000000000000000000000000000600052602260045260246000fd5b60006002820490506001821680620007e257607f821691505b602082108103620007f857620007f76200079a565b5b50919050565b60008190508160005260206000209050919050565b60006020601f8301049050919050565b600082821b905092915050565b600060088302620008627fffffffffffffffffffffffffffffffffffffffffffffffffffffffffffffffff8262000823565b6200086e868362000823565b95508019841693508086168417925050509392505050565b6000819050919050565b6000620008b1620008ab620008a58462000471565b62000886565b62000471565b9050919050565b6000819050919050565b620008cd8362000890565b620008e5620008dc82620008b8565b84845462000830565b825550505050565b600090565b620008fc620008ed565b62000909818484620008c2565b505050565b5b81811015620009315762000925600082620008f2565b6001810190506200090f565b5050565b601f82111562000980576200094a81620007fe565b620009558462000813565b8101602085101562000965578190505b6200097d620009748562000813565b8301826200090e565b50505b505050565b600082821c905092915050565b6000620009a56000198460080262000985565b1980831691505092915050565b6000620009c0838362000992565b9150826002028217905092915050565b620009db8262000760565b67ffffffffffffffff811115620009f757620009f66200076b565b5b62000a038254620007c9565b62000a1082828562000935565b600060209050601f83116001811462000a48576000841562000a33578287015190505b62000a3f8582620009b2565b86555062000aaf565b601f19841662000a5886620007fe565b60005b8281101562000a825784890151825560018201915060208501945060208101905062000a5b565b8683101562000aa2578489015162000a9e601f89168262000992565b8355505b6001600288020188555050505b505050505050565b600082825260208201905092915050565b7f45524332304361707065643a2063617020697320300000000000000000000000600082015250565b600062000b0060158362000ab7565b915062000b0d8262000ac8565b602082019050919050565b6000602082019050818103600083015262000b338162000af1565b9050919050565b600062000b478262000471565b915062000b548362000471565b925082820190508082111562000b6f5762000b6e62000534565b5b92915050565b7f45524332304361707065643a2063617020657863656564656400000000000000600082015250565b600062000bad60198362000ab7565b915062000bba8262000b75565b602082019050919050565b6000602082019050818103600083015262000be08162000b9e565b9050919050565b7f45524332303a206d696e7420746f20746865207a65726f206164647265737300600082015250565b600062000c1f601f8362000ab7565b915062000c2c8262000be7565b602082019050919050565b6000602082019050818103600083015262000c528162000c10565b9050919050565b62000c648162000471565b82525050565b600060208201905062000c81600083018462000c59565b92915050565b608051611ea562000ca360003960006106160152611ea56000f3fe608060405234801561001057600080fd5b50600436106101425760003560e01c80637ff9b596116100b8578063a457c2d71161007c578063a457c2d714610367578063a9059cbb14610397578063c0b200f7146103c7578063cf70fa40146103e5578063dd62ed3e14610403578063f31610221461043357610142565b80637ff9b596146102d357806383197ef0146102f157806385906256146102fb5780638da5cb5b1461032b57806395d89b411461034957610142565b8063313ce5671161010a578063313ce567146101ff578063355274ea1461021d578063395093511461023b57806342966c681461026b57806370a082311461028757806379cc6790146102b757610142565b806306fdde0314610147578063095ea7b31461016557806318160ddd146101955780631a18e707146101b357806323b872dd146101cf575b600080fd5b61014f610463565b60405161015c91906112cb565b60405180910390f35b61017f600480360381019061017a9190611386565b6104f5565b60405161018c91906113e1565b60405180910390f35b61019d610518565b6040516101aa919061140b565b60405180910390f35b6101cd60048036038101906101c89190611426565b610522565b005b6101e960048036038101906101e49190611453565b6105da565b6040516101f691906113e1565b60405180910390f35b610207610609565b60405161021491906114c2565b60405180910390f35b610225610612565b604051610232919061140b565b60405180910390f35b61025560048036038101906102509190611386565b61063a565b60405161026291906113e1565b60405180910390f35b61028560048036038101906102809190611426565b610671565b005b6102a1600480360381019061029c91906114dd565b610685565b6040516102ae919061140b565b60405180910390f35b6102d160048036038101906102cc9190611386565b6106cd565b005b6102db6106ed565b6040516102e8919061140b565b60405180910390f35b6102f96106f3565b005b61031560048036038101906103109190611426565b6107be565b604051610322919061140b565b60405180910390f35b6103336107d5565b604051610340919061152b565b60405180910390f35b6103516107fb565b60405161035e91906112cb565b60405180910390f35b610381600480360381019061037c9190611386565b61088d565b60405161038e91906113e1565b60405180910390f35b6103b160048036038101906103ac9190611386565b610904565b6040516103be91906113e1565b60405180910390f35b6103cf610927565b6040516103dc919061140b565b60405180910390f35b6103ed61092d565b6040516103fa919061140b565b60405180910390f35b61041d60048036038101906104189190611546565b610933565b60405161042a919061140b565b60405180910390f35b61044d60048036038101906104489190611426565b6109ba565b60405161045a919061140b565b60405180910390f35b606060038054610472906115b5565b80601f016020809104026020016040519081016040528092919081815260200182805461049e906115b5565b80156104eb5780601f106104c0576101008083540402835291602001916104eb565b820191906000526020600020905b8154815290600101906020018083116104ce57829003601f168201915b5050505050905090565b600080610500610b91565b905061050d818585610b99565b600191505092915050565b6000600254905090565b600560009054906101000a900473ffffffffffffffffffffffffffffffffffffffff1673ffffffffffffffffffffffffffffffffffffffff163373ffffffffffffffffffffffffffffffffffffffff16146105b2576040517f08c379a00000000000000000000000000000000000000000000000000000000081526004016105a990611658565b60405180910390fd5b6105ba610609565b600a6105c691906117da565b816105d19190611825565b60068190555050565b6000806105e5610b91565b90506105f2858285610d62565b6105fd858585610dee565b60019150509392505050565b60006012905090565b60007f0000000000000000000000000000000000000000000000000000000000000000905090565b600080610645610b91565b90506106668185856106578589610933565b6106619190611867565b610b99565b600191505092915050565b61068261067c610b91565b82611064565b50565b60008060008373ffffffffffffffffffffffffffffffffffffffff1673ffffffffffffffffffffffffffffffffffffffff168152602001908152602001600020549050919050565b6106df826106d9610b91565b83610d62565b6106e98282611064565b5050565b60085481565b600560009054906101000a900473ffffffffffffffffffffffffffffffffffffffff1673ffffffffffffffffffffffffffffffffffffffff163373ffffffffffffffffffffffffffffffffffffffff1614610783576040517f08c379a000000000000000000000000000000000000000000000000000000000815260040161077a90611658565b60405180910390fd5b600560009054906101000a900473ffffffffffffffffffffffffffffffffffffffff1673ffffffffffffffffffffffffffffffffffffffff16ff5b6000600754826107ce9190611825565b9050919050565b600560009054906101000a900473ffffffffffffffffffffffffffffffffffffffff1681565b60606004805461080a906115b5565b80601f0160208091040260200160405190810160405280929190818152602001828054610836906115b5565b80156108835780601f1061085857610100808354040283529160200191610883565b820191906000526020600020905b81548152906001019060200180831161086657829003601f168201915b5050505050905090565b600080610898610b91565b905060006108a68286610933565b9050838110156108eb576040517f08c379a00000000000000000000000000000000000000000000000000000000081526004016108e29061190d565b60405180910390fd5b6108f88286868403610b99565b60019250505092915050565b60008061090f610b91565b905061091c818585610dee565b600191505092915050565b60075481565b60065481565b6000600160008473ffffffffffffffffffffffffffffffffffffffff1673ffffffffffffffffffffffffffffffffffffffff16815260200190815260200160002060008373ffffffffffffffffffffffffffffffffffffffff1673ffffffffffffffffffffffffffffffffffffffff16815260200190815260200160002054905092915050565b6000600854826109ca9190611825565b9050919050565b6109d9610612565b816109e2610518565b6109ec9190611867565b1115610a2d576040517f08c379a0000000000000000000000000000000000000000000000000000000008152600401610a2490611979565b60405180910390fd5b610a378282610a3b565b5050565b600073ffffffffffffffffffffffffffffffffffffffff168273ffffffffffffffffffffffffffffffffffffffff1603610aaa576040517f08c379a0000000000000000000000000000000000000000000000000000000008152600401610aa1906119e5565b60405180910390fd5b610ab660008383611231565b8060026000828254610ac89190611867565b92505081905550806000808473ffffffffffffffffffffffffffffffffffffffff1673ffffffffffffffffffffffffffffffffffffffff168152602001908152602001600020600082825401925050819055508173ffffffffffffffffffffffffffffffffffffffff16600073ffffffffffffffffffffffffffffffffffffffff167fddf252ad1be2c89b69c2b068fc378daa952ba7f163c4a11628f55a4df523b3ef83604051610b79919061140b565b60405180910390a3610b8d60008383611236565b5050565b600033905090565b600073ffffffffffffffffffffffffffffffffffffffff168373ffffffffffffffffffffffffffffffffffffffff1603610c08576040517f08c379a0000000000000000000000000000000000000000000000000000000008152600401610bff90611a77565b60405180910390fd5b600073ffffffffffffffffffffffffffffffffffffffff168273ffffffffffffffffffffffffffffffffffffffff1603610c77576040517f08c379a0000000000000000000000000000000000000000000000000000000008152600401610c6e90611b09565b60405180910390fd5b80600160008573ffffffffffffffffffffffffffffffffffffffff1673ffffffffffffffffffffffffffffffffffffffff16815260200190815260200160002060008473ffffffffffffffffffffffffffffffffffffffff1673ffffffffffffffffffffffffffffffffffffffff168152602001908152602001600020819055508173ffffffffffffffffffffffffffffffffffffffff168373ffffffffffffffffffffffffffffffffffffffff167f8c5be1e5ebec7d5bd14f71427d1e84f3dd0314c0f7b2291e5b200ac8c7c3b92583604051610d55919061140b565b60405180910390a3505050565b6000610d6e8484610933565b90507fffffffffffffffffffffffffffffffffffffffffffffffffffffffffffffffff8114610de85781811015610dda576040517f08c379a0000000000000000000000000000000000000000000000000000000008152600401610dd190611b75565b60405180910390fd5b610de78484848403610b99565b5b50505050565b600073ffffffffffffffffffffffffffffffffffffffff168373ffffffffffffffffffffffffffffffffffffffff1603610e5d576040517f08c379a0000000000000000000000000000000000000000000000000000000008152600401610e5490611c07565b60405180910390fd5b600073ffffffffffffffffffffffffffffffffffffffff168273ffffffffffffffffffffffffffffffffffffffff1603610ecc576040517f08c379a0000000000000000000000000000000000000000000000000000000008152600401610ec390611c99565b60405180910390fd5b610ed7838383611231565b60008060008573ffffffffffffffffffffffffffffffffffffffff1673ffffffffffffffffffffffffffffffffffffffff16815260200190815260200160002054905081811015610f5d576040517f08c379a0000000000000000000000000000000000000000000000000000000008152600401610f5490611d2b565b60405180910390fd5b8181036000808673ffffffffffffffffffffffffffffffffffffffff1673ffffffffffffffffffffffffffffffffffffffff16815260200190815260200160002081905550816000808573ffffffffffffffffffffffffffffffffffffffff1673ffffffffffffffffffffffffffffffffffffffff168152602001908152602001600020600082825401925050819055508273ffffffffffffffffffffffffffffffffffffffff168473ffffffffffffffffffffffffffffffffffffffff167fddf252ad1be2c89b69c2b068fc378daa952ba7f163c4a11628f55a4df523b3ef8460405161104b919061140b565b60405180910390a361105e848484611236565b50505050565b600073ffffffffffffffffffffffffffffffffffffffff168273ffffffffffffffffffffffffffffffffffffffff16036110d3576040517f08c379a00000000000000000000000000000000000000000000000000000000081526004016110ca90611dbd565b60405180910390fd5b6110df82600083611231565b60008060008473ffffffffffffffffffffffffffffffffffffffff1673ffffffffffffffffffffffffffffffffffffffff16815260200190815260200160002054905081811015611165576040517f08c379a000000000000000000000000000000000000000000000000000000000815260040161115c90611e4f565b60405180910390fd5b8181036000808573ffffffffffffffffffffffffffffffffffffffff1673ffffffffffffffffffffffffffffffffffffffff1681526020019081526020016000208190555081600260008282540392505081905550600073ffffffffffffffffffffffffffffffffffffffff168373ffffffffffffffffffffffffffffffffffffffff167fddf252ad1be2c89b69c2b068fc378daa952ba7f163c4a11628f55a4df523b3ef84604051611218919061140b565b60405180910390a361122c83600084611236565b505050565b505050565b505050565b600081519050919050565b600082825260208201905092915050565b60005b8381101561127557808201518184015260208101905061125a565b60008484015250505050565b6000601f19601f8301169050919050565b600061129d8261123b565b6112a78185611246565b93506112b7818560208601611257565b6112c081611281565b840191505092915050565b600060208201905081810360008301526112e58184611292565b905092915050565b600080fd5b600073ffffffffffffffffffffffffffffffffffffffff82169050919050565b600061131d826112f2565b9050919050565b61132d81611312565b811461133857600080fd5b50565b60008135905061134a81611324565b92915050565b6000819050919050565b61136381611350565b811461136e57600080fd5b50565b6000813590506113808161135a565b92915050565b6000806040838503121561139d5761139c6112ed565b5b60006113ab8582860161133b565b92505060206113bc85828601611371565b9150509250929050565b60008115159050919050565b6113db816113c6565b82525050565b60006020820190506113f660008301846113d2565b92915050565b61140581611350565b82525050565b600060208201905061142060008301846113fc565b92915050565b60006020828403121561143c5761143b6112ed565b5b600061144a84828501611371565b91505092915050565b60008060006060848603121561146c5761146b6112ed565b5b600061147a8682870161133b565b935050602061148b8682870161133b565b925050604061149c86828701611371565b9150509250925092565b600060ff82169050919050565b6114bc816114a6565b82525050565b60006020820190506114d760008301846114b3565b92915050565b6000602082840312156114f3576114f26112ed565b5b60006115018482850161133b565b91505092915050565b6000611515826112f2565b9050919050565b6115258161150a565b82525050565b6000602082019050611540600083018461151c565b92915050565b6000806040838503121561155d5761155c6112ed565b5b600061156b8582860161133b565b925050602061157c8582860161133b565b9150509250929050565b7f4e487b7100000000000000000000000000000000000000000000000000000000600052602260045260246000fd5b600060028204905060018216806115cd57607f821691505b6020821081036115e0576115df611586565b5b50919050565b7f6f6e6c7920746865206f776e65722063616e2063616c6c20746869732066756e60008201527f6374696f6e000000000000000000000000000000000000000000000000000000602082015250565b6000611642602583611246565b915061164d826115e6565b604082019050919050565b6000602082019050818103600083015261167181611635565b9050919050565b7f4e487b7100000000000000000000000000000000000000000000000000000000600052601160045260246000fd5b60008160011c9050919050565b6000808291508390505b60018511156116fe578086048111156116da576116d9611678565b5b60018516156116e95780820291505b80810290506116f7856116a7565b94506116be565b94509492505050565b60008261171757600190506117d3565b8161172557600090506117d3565b816001811461173b576002811461174557611774565b60019150506117d3565b60ff84111561175757611756611678565b5b8360020a91508482111561176e5761176d611678565b5b506117d3565b5060208310610133831016604e8410600b84101617156117a95782820a9050838111156117a4576117a3611678565b5b6117d3565b6117b684848460016116b4565b925090508184048111156117cd576117cc611678565b5b81810290505b9392505050565b60006117e582611350565b91506117f0836114a6565b925061181d7fffffffffffffffffffffffffffffffffffffffffffffffffffffffffffffffff8484611707565b905092915050565b600061183082611350565b915061183b83611350565b925082820261184981611350565b915082820484148315176118605761185f611678565b5b5092915050565b600061187282611350565b915061187d83611350565b925082820190508082111561189557611894611678565b5b92915050565b7f45524332303a2064656372656173656420616c6c6f77616e63652062656c6f7760008201527f207a65726f000000000000000000000000000000000000000000000000000000602082015250565b60006118f7602583611246565b91506119028261189b565b604082019050919050565b60006020820190508181036000830152611926816118ea565b9050919050565b7f45524332304361707065643a2063617020657863656564656400000000000000600082015250565b6000611963601983611246565b915061196e8261192d565b602082019050919050565b6000602082019050818103600083015261199281611956565b9050919050565b7f45524332303a206d696e7420746f20746865207a65726f206164647265737300600082015250565b60006119cf601f83611246565b91506119da82611999565b602082019050919050565b600060208201905081810360008301526119fe816119c2565b9050919050565b7f45524332303a20617070726f76652066726f6d20746865207a65726f2061646460008201527f7265737300000000000000000000000000000000000000000000000000000000602082015250565b6000611a61602483611246565b9150611a6c82611a05565b604082019050919050565b60006020820190508181036000830152611a9081611a54565b9050919050565b7f45524332303a20617070726f766520746f20746865207a65726f20616464726560008201527f7373000000000000000000000000000000000000000000000000000000000000602082015250565b6000611af3602283611246565b9150611afe82611a97565b604082019050919050565b60006020820190508181036000830152611b2281611ae6565b9050919050565b7f45524332303a20696e73756666696369656e7420616c6c6f77616e6365000000600082015250565b6000611b5f601d83611246565b9150611b6a82611b29565b602082019050919050565b60006020820190508181036000830152611b8e81611b52565b9050919050565b7f45524332303a207472616e736665722066726f6d20746865207a65726f20616460008201527f6472657373000000000000000000000000000000000000000000000000000000602082015250565b6000611bf1602583611246565b9150611bfc82611b95565b604082019050919050565b60006020820190508181036000830152611c2081611be4565b9050919050565b7f45524332303a207472616e7366657220746f20746865207a65726f206164647260008201527f6573730000000000000000000000000000000000000000000000000000000000602082015250565b6000611c83602383611246565b9150611c8e82611c27565b604082019050919050565b60006020820190508181036000830152611cb281611c76565b9050919050565b7f45524332303a207472616e7366657220616d6f756e742065786365656473206260008201527f616c616e63650000000000000000000000000000000000000000000000000000602082015250565b6000611d15602683611246565b9150611d2082611cb9565b604082019050919050565b60006020820190508181036000830152611d4481611d08565b9050919050565b7f45524332303a206275726e2066726f6d20746865207a65726f2061646472657360008201527f7300000000000000000000000000000000000000000000000000000000000000602082015250565b6000611da7602183611246565b9150611db282611d4b565b604082019050919050565b60006020820190508181036000830152611dd681611d9a565b9050919050565b7f45524332303a206275726e20616d6f756e7420657863656564732062616c616e60008201527f6365000000000000000000000000000000000000000000000000000000000000602082015250565b6000611e39602283611246565b9150611e4482611ddd565b604082019050919050565b60006020820190508181036000830152611e6881611e2c565b905091905056fea2646970667358221220c667d8ba4cff6be62100326a8156fefbd159355d765d796cd448adbf348290e064736f6c63430008120033",
  "linkReferences": {},
  "deployedLinkReferences": {}
}